:020000040800F2
:10000000A00600200D020008E92C00089125000838
:1000100091290008C1070008F93700080000000016
:10002000000000000000000000000000292D000872
:100030003908000800000000212D0008B92D000833
:1000400027020008270200082702000827020008EC
:1000500027020008270200082702000827020008DC
:1000600027020008270200082702000827020008CC
:1000700027020008270200082702000827020008BC
:1000800027020008270200082702000827020008AC
:10009000270200082702000827020008270200089C
:1000A00027020008B12E00082702000827020008D6
:1000B000270200082702000827020008270200087C
:1000C000270200082702000827020008270200086C
:1000D000270200082702000827020008270200085C
:1000E000270200082702000827020008270200084C
:1000F000270200082702000827020008270200083C
:100100002702000827020008C12E00082702000865
:10011000270200082702000827020008270200081B
:10012000270200082702000827020008270200080B
:1001300027020008270200082702000827020008FB
:1001400027020008270200082702000827020008EB
:1001500027020008270200082702000827020008DB
:1001600027020008270200082702000827020008CB
:1001700027020008270200082702000800000000EC
:1001800027020008270200082702000827020008AB
:10019000270200082702000827020008270200089B
:1001A000270200082702000827020008270200088B
:1001B000270200082702000827020008270200087B
:1001C000270200082702000800000000270200089C
:1001D000270200082702000827020008270200085B
:1001E000270200082702000827020008270200084B
:1001F0002702000827020008DFF80CD000F05CFAA4
:100200000048004729390008A0060020064880471A
:1002100006480047FEE7FEE7FEE7FEE7FEE7FEE7EB
:10022000FEE7FEE7FEE7FEE7712E0008F901000891
:100230002DE9F05F0546002092469B46884606461B
:10024000814640241BE0284641464746224600F0AE
:100250006AF853465A46C01A914110D311461846BF
:10026000224600F051F82D1A67EB01084F4622464E
:100270000120002100F048F817EB00094E41201E34
:10028000A4F10104DFDC484631462A464346BDE876
:10029000F09FD2B201E000F8012B491EFBD270475B
:1002A0000022F6E710B513460A4604461946FFF742
:1002B000F0FF204610BD421E12F8013F002BFBD17B
:1002C00011F8013B02F8013B002BF9D17047421CA9
:1002D00010F8011B0029FBD1801A704730B50B467E
:1002E000014600202022012409E021FA02F59D4266
:1002F00005D303FA02F5491B04FA02F52844151E3A
:10030000A2F10102F1DC30BD202A04DB203A00FA20
:1003100002F1002070479140C2F1200320FA03F35C
:10032000194390407047202A04DB203A21FA02F05A
:100330000021704721FA02F3D040C2F1200291401F
:100340000843194670472DE9FE4F804681EA0300B5
:10035000C00F0C46009021F0004123F00045B8EB9F
:100360000200A94105D24046214690461C460B4654
:10037000024623F00040104347D0270DC7F30A0080
:10038000C3F30A510290401A019040286BDAC3F37C
:10039000130040F4801B0098924620B10023D2EB5A
:1003A000030A63EB0B0B01985946C0F1400250461B
:1003B000FFF7AAFF06460D4650465946019A00F03F
:1003C0008DF910EB08006141002487EA115284EA9C
:1003D000E7731A4340D0009A62B3019A012A4FEAA8
:1003E000075215DC001B61EB02014FF0004202EAEC
:1003F0000752CDE90042001C41F5801132462B46E0
:1004000000F08DF903B0BDE8F08F40462146F9E7D2
:10041000001B61EB0201001C41F5801300185B41D9
:100420002018A2F5001747EB030140EAD570B61972
:100430006D4111E06D084FEA360645EAC0754FEA96
:100440000752001B61EB0201001C41F580114908B5
:100450004FEA30000019514132462B4603B0BDE847
:10046000F04F00F04DB90098012240000023D0EB7E
:10047000020263EBE073009821464FEAE074B8EBA8
:10048000000061EB0401E9E783F000435BE781F0E2
:10049000004158E72DE9FE4F81EA030404F00044CF
:1004A00021F0004100944FF0000B23F0004350EA8C
:1004B00001045ED052EA03045BD0C3F30A54C1F3D3
:1004C0000A552C44A4F2F3340194A0FB0254C1F366
:1004D000130141F48011C3F3130343F4801301FBB0
:1004E000024400FB034E840A970A44EA815447EA17
:1004F0008357A4FB076802958D0A05FB07854FEA21
:10050000932C04FB0C542705029D4FEA065847EA3A
:100510001637B5EB08056EEB070C870E920E47EA0F
:10052000811742EA8312A7FB0201B6EB0B0164EBD1
:1005300000042B0D43EA0C335E1844EB1C50DA46E2
:100540005146E7FB0201C5F313044FEA0B3343EABC
:1005500014534FEA0432019C43EA0603A4F10C044D
:100560000294009CCDE900B400F0D9F803B0BDE8D6
:10057000F08F00200146F9E72DE9F04D81EA0304F0
:1005800004F0004B21F0004514464FF0000A23F020
:10059000004150EA050220D054EA01021DD0C5F303
:1005A0000A570246C5F31303C1F31300C1F30A56F9
:1005B00040F4801543F48013A7EB0608101BD646C1
:1005C00008F2FD3873EB050002D308F1010801E0E1
:1005D00092185B41B8F1000F03DA00200146BDE834
:1005E000F08D00204FF48011064684460EE0171B64
:1005F00073EB050705D3121B63EB050306434CEAB7
:10060000010C49084FEA300092185B4150EA01079B
:10061000EDD152EA030012D082EA040083EA050118
:10062000084305D0101BAB4106D20122002306E08F
:1006300000224FF0004302E06FF0010253101AEB6A
:1006400006004CEB085110EB0A0041EB0B01BDE832
:10065000F04D00F055B8C1F30A52C1F3130140F256
:10066000FF3341F480119A4202DA002001467047BC
:1006700040F233439A42A2F2334202DC5242FFF785
:1006800052BEFFF741BE000030B5041E71F10004F8
:1006900004DB4FF00044404264EB0101141E73F18F
:1006A000000405DB1C464FF00043524263EB040399
:1006B000994208BF904230BD064C074D06E0E06805
:1006C00040F0010394E8070098471034AC42F6D399
:1006D000FFF796FD1847000838470008202A06DB78
:1006E000CB17203A41FA02F043EAE07306E041FA00
:1006F00002F3D040C2F120029140084319467047EE
:1007000010B5141E73F1000408DA401C41F1000119
:1007100092185B411A4301D120F0010010BD2DE970
:10072000F04D92469B4611B1B1FA81F202E0B0FA67
:1007300080F220329046FFF7E7FD04460F4640EA7C
:100740000A0041EA0B0153465A46084313D01146AA
:1007500053EA010019D0C8F140025046FFF7E3FD0B
:1007600005460E46504659464246FFF7CDFD084322
:1007700005D0012004E020463946BDE8F08D002078
:10078000054346EAE0762C4337430A986305E40ABA
:10079000A0EB08000022FD0A44EA47540A3002D5C3
:1007A00000200146E9E7010510196941DDE9084526
:1007B00000196941BDE8F04DA2E70000000000000B
:1007C000FEE700000000000080B5012040F6CA01ED
:1007D00002F0E2F8022040F6CA0102F0DDF804203F
:1007E00040F6CA0102F0D8F8052040F6CA0102F02E
:1007F000D3F880BD0000000080B501204FF4FA61FD
:100800004FF4FA7202F04CF905204FF4FA614FF4FC
:10081000FA7202F045F902204FF4FA614FF4FA72CD
:1008200002F03EF904204FF4FA614FF4FA7202F03C
:1008300037F980BD00000000704700000000000094
:10084000B0B540F248150446C2F20005284601F052
:10085000DBF8286800214162416AA142FCD340F2E2
:100860004810C2F2000001F083F9B0BD00000000A2
:10087000704700000000000080B501204FF4617156
:100880004FF4967202F00CF902204FF461714FF4AC
:10089000967202F005F904204FF461714FF49672DC
:1008A00002F0FEF805204FF461714FF4967202F0E9
:1008B000F7F880BD00000000B0B5044600F0F4F881
:1008C00040F208010546C2F20001621C097818BF17
:1008D0000C4400BF00F0E8F8401BA042FAD3B0BDC2
:1008E0002DE9F04F83B000F13E4242F2004702F1A1
:1008F000FF72C4F202070A2343F6004BB8424FEAE4
:10090000B2220092C4F2010B08BF092300254FF068
:10091000010E00224FF00008019308E008F10108E1
:100920000432B8F1100F05F1020500F0A1800EFAB3
:1009300008F70C6814EA070CF0D0D1F804A0BAF15B
:10094000120F15D80EFA0AF414F0061F10D0032364
:10095000846803FA05F6CB68B443AB402343836055
:10096000CAF300144368BB4304FA08F4234343600A
:100970000324C36804FA05F98C684AF0100623EAD8
:100980000903AC40122E43EA0403C36011D16FF097
:10099000030302F01C0603EA58030F24034404FA7D
:1009A00006F7D3F820A00C692AEA0707B4403C43B5
:1009B0001C6203684C6804F003066FEA0907AE4046
:1009C0003B40E40043EA06030360A7D543F6440432
:1009D0004FF6084AC4F20204CFF6FF7A236843F4C4
:1009E00080432360236802F00C0403F480430293E5
:1009F000029B28F003035B44009F019E092F38BF30
:100A00003E460F2753F80A90A74029EA070706FA3F
:100A100004F43C4343F80A40DBF800304C6843EAF6
:100A20000C06E70358BF23EA0C06A703CBF80060C7
:100A3000DBF8043043EA0C0658BF23EA0C06E70251
:100A400043F60C47CBF80460C4F20107DBF808302A
:100A500043EA0C0658BF23EA0C06A402CBF8086050
:100A60003B6843EA0C0658BF23EA0C063E6055E794
:100A700003B0BDE8F08F00000069084018BF0120F6
:100A80007047000000000000426902EA0103914340
:100A900041EA034181617047002A08BF090481616E
:100AA000704700000000000040F29C20C2F20000ED
:100AB000006870470000000040F2080040F29C21EE
:100AC000C2F20000C2F2000100780A681044086017
:100AD000704700000000000080B5032000F060F8BF
:100AE0000F2000F005F800F02BF8002080BD00007A
:100AF000B0B540F2080140F20402C2F20001C2F2B5
:100B000000024FF47A73044609781268B3FBF1F1DE
:100B1000B2FBF1F1084600F01FFE0F2C4FF001056B
:100B20000CD858B94FF0FF3000222146002500F0C4
:100B300027F840F20C00C2F2000004602846B0BD65
:100B400082B043F64000C4F20200016841F08051D7
:100B50000160016801F0805101910199416841F4FF
:100B600080414160406800F480400090009802B0ED
:100B7000704700000000000080B502F041FE80BD1B
:100B800070B514460D46064602F04AFE2946224636
:100B900002F0AEF80146304602F04AFE70BD000099
:100BA00080B502F059FE80BDB0B582B043F640007A
:100BB00047F20005C4F20200C4F20005016841F0EA
:100BC00080510160006800F0805001900198286811
:100BD00040F480302860FFF767FF04466868C00370
:100BE00006D4FFF761FF001BB0F57A7FF6D910E05D
:100BF000286840F400302860FFF756FF044600BF25
:100C00006868800308D4FFF74FFF001BB0F57A7FB8
:100C1000F6D9032002B0B0BD002002B0B0BD000084
:100C20002DE9F04782B0D0F800A043F690060446C4
:100C30005FEACA70C4F202061AD14FF000095FEAF7
:100C40000A3028D556F8040CE16B20F44010B1F5B9
:100C5000801F40EA010046F8040CB1FA81F04FEA27
:100C6000501808BF4FF001095FEACA2018D429E0E4
:100C700056F8880C20F4000046F8880C606B56F893
:100C8000881C014346F8881CB0FA80F04FEA5019DE
:100C90005FEA0A30D6D44FF000085FEACA2011D5C7
:100CA00056F8040C216C20F44000B1F5800F40EAA6
:100CB000010008BF4FF00109002908BF4FF00108EB
:100CC00046F8040C5FEA8A6059D556F8500C47F292
:100CD000000740F0805046F8500CC4F2000756F868
:100CE000500C00F0805001900198386840F48070FA
:100CF0003860FFF7D9FE05463868C00505D4FFF710
:100D0000D3FE401B6428F7D9F3E156F8200C10F409
:100D100040701BD0216B01F44071884216D056F808
:100D2000200C56F8201C41F4803146F8201C56F85F
:100D3000201C20F4407021F4803146F8201C46F835
:100D4000200C56F8200CC00740F03F814FF6FF43BF
:100D5000206B56F8882CC0F6FF7300F4407122F423
:100D6000F8120340B1F5407F08BF1A436FF31F30FC
:100D700046F8882C56F8201C084346F8200C2768B3
:100D8000F8065CD4780468D438046ED4F80374D4BC
:100D9000B8037BD4780600F18280380600F18880A1
:100DA000F80500F18E80B80500F19480780500F117
:100DB0009A80380500F1A080F80400F1A680B804FC
:100DC00000F1AC80780200F1B280B80200F1B88086
:100DD000780300F1C480380200F1CA80780100F184
:100DE000D180380100F1D880F80008D556F8040CFD
:100DF000D4F88C1020F08060084346F8040CB9F158
:100E0000000F02BF0AF0807007F0007110EB0100C4
:100E100000F0568156F8900C20F0806046F8900C57
:100E2000FFF742FE054600BF56F8900C000140F166
:100E3000C080FFF739FE401B6428F5D959E156F808
:100E4000040C20F0807046F8040CA06B56F8041CCB
:100E5000084346F8040C780496D53068616E20F497
:100E6000403008433060380490D53068A16E20F4DB
:100E7000402008433060F8038AD53068E16E20F4E2
:100E8000401008433060B8037FF584AF3068216FAD
:100E900020F440000843306078067FF57EAF30686C
:100EA000616C20F003000843306038067FF578AFAE
:100EB0003068A16C20F00C0008433060F8057FF525
:100EC00072AF3068E16C20F0300008433060B80544
:100ED0007FF56CAF3068216D20F0C00008433060B2
:100EE00078057FF566AF3068616D20F44070084387
:100EF000306038057FF560AF3068A16D20F4406048
:100F000008433060F8047FF55AAF3068E16D20F493
:100F1000405008433060B8047FF554AF3068216E0C
:100F200020F440400843306078027FF54EAF3068CF
:100F3000A16F20F0806008433060B8027FF548AFB1
:100F40003068E16F20F00060B1F1006F40EA01000D
:100F500008BF4FF00108306078037FF53CAF306880
:100F6000616F20F040700843306038027FF536AF83
:100F70003068D4F8801020F0805008433060780149
:100F80007FF52FAF3068D4F8841020F0005008436C
:100F9000306038017FF528AF56F8040CD4F888107B
:100FA00020F00070084346F8040CF8003FF51EAF2F
:100FB00025E72068C10701D0616BC1B1010329D5C4
:100FC000E16BB1F5801F25D12AE0FFF76DFD0546E5
:100FD00041F2883756F8200C80073FF5B7AEFFF78F
:100FE00063FD401BB8424FF00300F3D9F0E056F820
:100FF0000C1C56F80C2C01F4403102F07062D4E95C
:101000000135114441EA831141EA057146F80C1C8F
:101010000103D5D4C1021DD5216CB1F5800F19D1C2
:1010200056F80C1C56F80C2C01F4403102F0E0424A
:1010300063681144E26841EA8311656A41EA02612A
:1010400046F80C1C56F8041C6A1E21F01F011143BF
:1010500046F8041CC10110D556F80C1C56F80C2C8F
:1010600001F0706102F0E04263682569114441EAD1
:10107000831141EA054146F80C1C80010CD56068DB
:10108000A368D4E90321090441EA801040EA026020
:1010900040EA037046F80C0C56F8900C40F0806063
:1010A00046F8900CFFF700FD054600BF56F8900C7F
:1010B000000105D4FFF7F8FC401B6428F6D918E0BE
:1010C00017F0080008BFB8F1000F00F0848056F850
:1010D000900C20F0805046F8900CFFF7E5FC054698
:1010E00056F8900C800008D5FFF7DEFC401B642802
:1010F000F6D9032002B0BDE8F0872068010301D5CE
:10110000E16B19B1C1021ED5216CE1B956F8081C7A
:1011100056F8082C01F4403102F0E04263691144B2
:10112000A26941EA8311A76A41EA026146F8081CF4
:1011300056F8041C6FF0FF0221F4F85102EB07226D
:10114000114346F8041C810214D5E16FB1F1006F20
:1011500010D156F8081C56F8082C01F0706102F006
:10116000E0426369276A114441EA831141EA074179
:1011700046F8081C000718D556F8080C56F8081C45
:1011800000F0706001F4403162690844E16940EAAE
:101190008210E36A40EA017046F8080C56F8040C25
:1011A00020F44030184346F8040C56F8900C40F0F8
:1011B000805046F8900CFFF777FC044656F8900CE8
:1011C000800008D4FFF770FC001B6528F6D30320CD
:1011D00002B0BDE8F087002002B0BDE8F087000053
:1011E0002DE9F041002800F0888043F60807044606
:1011F000C4F202078846D7F8F80300F00F008842CF
:101200000DD2D7F8F80320F00F0040EA0800C7F825
:10121000F803D7F8F80300F00F0040456DD12068BF
:10122000810711D5410703D5396841F4E051396090
:10123000010703D5396841F4604139603968A26813
:1012400021F0F00111433960C0073FD1D7F8F8030E
:1012500000F00F0040450DD9D7F8F80320F00F003B
:1012600040EA0800C7F8F803D7F8F80300F00F00C9
:10127000404542D12068410705D53968E26821F42C
:10128000E05111433960000706D53868216920F420
:10129000604040EAC100386000F07EF8396844F2EE
:1012A000FC62C0F60002C1F30311515C40F20C0273
:1012B000C2F20002C84040F20401C2F2000108601C
:1012C0001068FFF715FC0020BDE8F0816068022877
:1012D00008D001280DD157F8081C890310D401202B
:1012E000BDE8F08157F8081C890109D40120BDE848
:1012F000F08157F8081C890702D40120BDE8F0816D
:10130000396821F0030108433860FFF7CDFB06463A
:1013100041F288353868616800F00C00B0EB810F4D
:1013200094D0FFF7C1FB801BA842F3D90320BDE88E
:10133000F08100000000000040F20400C2F2000052
:10134000006870470000000080B5FFF7F5FF43F626
:10135000080144F20C72C4F20201C0F600020968EE
:10136000C1F38221515CC84080BD00000000000034
:1013700080B5FFF7E1FF43F6080144F20C72C4F2B6
:101380000201C0F600020968C1F34231515CC84055
:1013900080BD00000000000010B543F60404C4F254
:1013A0000204606800F00C00082806D0042823D14D
:1013B00047F64000C0F27D1010BD22682068400250
:1013C00047F640002168C0F27D105CBF42F2004049
:1013D000C0F2F400C1F3881102F03F02A0FB01014A
:1013E0000023FEF725FF21680222C1F3014102EB31
:1013F0004101B0FBF1F010BD42F20040C0F2F40038
:1014000010BD0000000000002DE9F04182B000286E
:1014100000F0A8800446007843F60006C007C4F236
:10142000020643D0B06800F00C00042805D13068F3
:1014300080033BD56068C8BB94E0B06800F00C0046
:10144000082802D170684002F1D465682DB1B5F565
:10145000A02F0AD0B5F5803F0BD0306820F4803043
:101460003060306820F4802006E0306840F480204E
:101470003060306840F480303060FFF715FB002D9D
:10148000054610D03068800310D4FFF70DFB401BD9
:101490006428F7D920E100BFFFF706FB401B642852
:1014A0004FF003005BD830688003F5D420788007C4
:1014B0001AD5B06810F00C0F09D0B06800F00C001D
:1014C000082840F08A807068400200F18680306809
:1014D000800702D5E068012844D13068216920F0F6
:1014E000F80040EAC1003060207800073ED4207840
:1014F00040074ED4A5698DB3B06800F00C000828F1
:1015000040F09E80012D70682CD000F48001E269CB
:10151000914227D100F03F01226A914222D147F641
:10152000C071626A0140B1EB821F1BD1A16A002227
:10153000CFF6FF7200F4403302EBC1316FF30F01BD
:101540008B420FD1E16A00F07062B2EB016F09D1FA
:10155000216B00F0E040B0EB017F03D1002002B02E
:10156000BDE8F081012002B0BDE8F081606900288B
:10157000706F55D040F001007067FFF795FA05468F
:10158000706F8007B3D4FFF78FFA401B0228F7D99A
:10159000A2E0306C10F0805808D1306C40F08050E0
:1015A0003064306C00F080500190019847F20007E1
:1015B000C4F200073868C00524D4386840F480704D
:1015C0003860FFF771FA05463868C0051AD4FFF78E
:1015D0006BFA401B6428F7D97EE0E0680028306889
:1015E00050D040F001003060FFF75EFA054600BFC2
:1015F000306880073FF571AFFFF756FA401B0228AD
:10160000F6D969E0A5681DB1052D4DD0012D4FD04B
:10161000306F20F001003067306F20F004004AE0A6
:1016200020F001007067FFF73FFA0546706F8007F2
:101630007FF55DAFFFF738FA401B0228F6D94BE083
:10164000306820F080703060FFF72EFA022D0546DA
:101650000CD100BF3068800156D5FFF725FA401B3A
:1016600002284FF00300F5D979E700BF3068800108
:101670007FF574AFFFF718FA401B02284FF0030004
:10168000F4D96CE720F001003060FFF70DFA054651
:10169000306880077FF528AFFFF706FA401B022865
:1016A0004FF00300F4D95AE7306F40F00400306780
:1016B000306F40F001003067FFF7F6F9002D054666
:1016C00041F2883714D000BF306F800713D4FFF782
:1016D000EBF9401BB842F7D9032002B0BDE8F08116
:1016E000FFF7E2F9401BB8424FF003003FF637AF77
:1016F000306F8007F4D4B8F1000F7FF4FBAE306C8C
:1017000020F080503064F5E604F11C030FCB084351
:10171000002140EA8210CFF6FF71E26A01EBC3318B
:101720006FF30F01236B40EA0260084340EA037045
:101730007060306840F080703060FFF7B5F90446A3
:10174000306880013FF50AAFFFF7AEF9001B0228B1
:101750004FF00300F4D902E780B501F015FB80BD1E
:10176000704700000000000070470000000000000B
:101770007047000000000000B0B590F83C20012A3E
:101780004FF002025CD0012380F83C3080F83D200D
:1017900040F2004C0268C4F2010C42F480636345DD
:1017A0005368D2F808E002BF23F470034C68234367
:1017B00041F2FF740D68C4F2000423F07003A242EA
:1017C00043EA050353600BDC40F2FF73C4F20003ED
:1017D0009A4215DCB2F1804F27D040F2004317E067
:1017E00040F2FF33C4F201039A4216DC41F60003D3
:1017F000C4F200039A4218D00023C4F2010309E0A6
:1018000040F60003C4F200039A420ED040F60043B3
:10181000C4F200039A4208D00CE044F20003C4F280
:1018200001039A4201D0624504D12EF080038968F9
:10183000194391600022012180F83D1080F83C207E
:101840001046B0BD0000000060B310B5044690F82B
:101850003D0028B9002084F83C00204600F024F820
:10186000022084F83D002068211D01F031FB012099
:1018700084F8480084F83E0084F83F0084F8400073
:1018800084F8410084F8420084F8430084F844005E
:1018900084F8450084F8460084F8470084F83D0049
:1018A000002010BD0120704780B586B040F6FF7261
:1018B0000068C4F20002002190420591CDE90311B5
:1018C000CDE901113ADCB0F1804F59D040F600412A
:1018D000C4F20001884240F0928043F64000C4F216
:1018E0000200016841F008010160016801F008018F
:1018F0000091009950F8101C41F0800140F8101C34
:1019000050F8100C002100F0800000900098049125
:1019100000214FF44060C4F20201019002200590C2
:10192000CDE9020001F5E05001A9FEF7D9FF322010
:1019300000210022FFF724F932201DE041F20001CE
:10194000C4F20001884245D00021C4F2010188425E
:1019500055D143F640000022C4F20200416841F034
:10196000010141604068002100F0010000900098F2
:101970001920FFF705F91920FFF7FEF806B080BD22
:1019800043F64000C4F20200016841F00101016029
:10199000016801F001010091009950F8101C41F01C
:1019A000010140F8101C50F8100C01A900F00100D2
:1019B0000090009820200190022002900020CDE9A4
:1019C0000300012005900020C4F20200FEF788FF0A
:1019D00006B080BD43F640000022C4F20200016858
:1019E00041F0100101600068002100F0100000903B
:1019F00000983620FFF7C4F83620FFF7BDF806B090
:101A000080BD00000000000090F83D10012917D1B2
:101A1000022180F83D10016841F2FF70C4F200001D
:101A200081420FDC40F2FF70C4F20000814217DCFB
:101A3000B1F1804F2BD040F20040C4F2000024E00E
:101A40000120704740F2FF30C4F20100814212DCF5
:101A500041F60000C4F20000814218D0002012E0DC
:101A600040F60000C4F20000814210D040F6004071
:101A7000C4F2000009E044F20000C4F20100814217
:101A800005D040F20040C4F2010081420BD1072290
:101A90008868C0F2010202400020062A18BFB2F591
:101AA000803F00D17047086840F0010008600020C6
:101AB000704700000000000090F83D1001291BD184
:101AC000022180F83D10016841F2FF70C4F200006D
:101AD0008142C86840F00100C8600FDC40F2FF702E
:101AE000C4F20000814217DCB1F1804F2BD040F2EC
:101AF0000040C4F2000024E00120704740F2FF30B3
:101B0000C4F20100814212DC41F60000C4F2000080
:101B1000814218D0002012E040F60000C4F200001C
:101B2000814210D040F60040C4F2000009E044F2C7
:101B30000000C4F20100814205D040F20040C4F22E
:101B4000010081420BD107228868C0F201020240E5
:101B50000020062A18BFB2F5803F00D17047086800
:101B600040F0010008600020704700000000000005
:101B70000146006841F21113026A1A4208D1026A52
:101B800040F244431A4203D1026822F0010202608B
:101B90000020012281F83D20704700000000000075
:101BA00010B5044690F83C0001284FF0020008BF31
:101BB00010BD012284F83C2084F83D008823206871
:101BC000CFF6FE7382681A4082600A683F2A14DDED
:101BD0005F2A18DD602A28D0B2F5005F2DD0702A68
:101BE00040D1D1E9012CCB68614601F015FA20689B
:101BF000816841F07701816034E01F2A0FDC92B1E7
:101C0000102A10D02EE0402A23D0502A2AD14B6827
:101C1000CA68194601F05CFA2068502120E0202AA9
:101C200001D0302A1ED111461AE04B68CA68194605
:101C300001F0B6FA2068602112E0D1E9012CCB68EE
:101C4000614601F0E9F92068816841F480418160D2
:101C500008E04B68CA68194601F03AFA206840214A
:101C600001F0E6F9012084F83D00002084F83C00F2
:101C700010BD00000000000070B540F60042016891
:101C8000C4F20002914200D070BD007F022829D02A
:101C90000128F9D140F23805C2F200052878010682
:101CA000F2D4410671D440F2340040F2FC04C2F296
:101CB0000000C2F2000400210160402028700021D1
:101CC000204600F029FB40F230022168C2F20002F7
:101CD0001060086A20F00A000862086A40F00200FA
:101CE000086270BD40F24405C2F200052878010682
:101CF00048BF70BD41061ED440F2400040F2FC04D3
:101D0000C2F20000C2F200040021016040202870ED
:101D10000421204600F000FB40F23C022168C2F2A0
:101D200000021060086A20F0A0000862086A40F013
:101D30002000086270BD40F2FC0440F08000C2F256
:101D4000000428700421204600F0E6FA297840F2C9
:101D50004002C2F2000240F23C03C2F2000301F072
:101D60003F011060401A40F248011E88C2F2000193
:101D7000801B08802168002018602870086A20F005
:101D8000A0000862086A086270BD40F2FC0440F0DE
:101D90008000C2F20004287000212046002600F0D6
:101DA000BBFA40F234012A78C2F200012E7002F030
:101DB0003F02086040F23001C2F20001801A40F296
:101DC00046020B88C2F200020E60C01A1080206822
:101DD000016A21F00A010162016A016270BD00001E
:101DE000B0B5044690F83C00012801D10220B0BDF6
:101DF0000D46082A4FF0010084F83C000CD0042A5C
:101E000018D00ABB2068EB68D5E9001201F074F91C
:101E1000206850F8181F08E02068EB68D5E9001228
:101E200001F0F2F9206850F81C1F21F00C0101604C
:101E3000A96817E02068EB68D5E9001201F0C4F941
:101E4000206850F8181F08E02068EB68D5E90012F8
:101E500001F0F6F9206850F81C1F21F44061016080
:101E6000A9680902026811430160002084F83C005F
:101E7000B0BD00000000000060B310B5044690F84B
:101E80003D0028B9002084F83C00204600F024F8EA
:101E9000022084F83D002068211D01F019F801207E
:101EA00084F8480084F83E0084F83F0084F840003D
:101EB00084F8410084F8420084F8430084F8440028
:101EC00084F8450084F8460084F8470084F83D0013
:101ED000002010BD01207047704700000000000086
:101EE00010B5044659B1081F4FEAB000032809D8BD
:101EF000DFE800F0020B0E1104F13F000DE004F1E9
:101F00003E000AE004F1430007E004F1400004E071
:101F100004F1410001E004F14200007831B10829E8
:101F200007D0042908D104F1450207E004F1440276
:101F300004E004F1460201E004F1470212780128AE
:101F40004FF0010008BF012A00D010BD61B1081F89
:101F50004FEAB00003280BD8DFE800F0020E12169B
:101F6000022084F83F0012E0022084F83E000EE0D8
:101F7000022084F843000AE0022084F8400006E0D2
:101F8000022084F8410002E0022084F8420002208E
:101F900031B1082907D0042908D184F8450007E0A9
:101FA00084F8440004E084F8460001E084F8470027
:101FB0004FEAB100032806D82BA2236852F820006C
:101FC000DA681043D8602068012201F015F841F268
:101FD000FF702168C4F2000081420DDC40F2FF7006
:101FE000C4F20000814215DCB1F1804F29D040F2EB
:101FF0000040C4F2000022E040F2FF30C4F20100D1
:10200000814212DC41F60000C4F20000814218D087
:10201000002012E040F60000C4F20000814210D01F
:1020200040F60040C4F2000009E044F20000C4F2AF
:102030000100814205D040F20040C4F2010081421B
:102040000BD107228868C0F2010202400020062A54
:1020500018BFB2F5803F3FF478AF086840F0010048
:102060000860002010BD00BF020000000400000056
:10207000080000001000000010B504460068016967
:10208000890744BFC1685FEA817140D42068016953
:10209000490744BFC1685FEA417144D420680169BF
:1020A000090744BFC1685FEA017149D4206801692A
:1020B000C90644BFC1685FEAC1614DD420680169A7
:1020C000C9071CBFC1685FEAC17152D120680169AC
:1020D000090644BFC1685FEA016151D42068016903
:1020E000C90544BFC1685FEA016150D42068016935
:1020F000490644BFC1685FEA41614FD42068016965
:10210000890644BFC1685FEA81614ED410BD6FF09B
:102110000201016101212177806980074CD02046AE
:10212000FFF7AAFD4EE06FF0040101610221217763
:10213000806910F4407F48D02046FFF79DFD4AE0BB
:102140006FF00801016104212177C069800745D043
:102150002046FFF791FD47E06FF010010161082173
:102160002177C06910F4407F41D02046FFF784FDFD
:1021700043E06FF001010161204600F049F8A5E756
:102180006FF0800101612046FFF7EEFAA6E76FF4D9
:10219000807101612046FFF7E3FAA7E76FF0400185
:1021A0000161204600F0FCF8A8E76FF02001016112
:1021B0002046FFF7DDFA10BD204600F021F820464A
:1021C00000F022F80020207760E7204600F018F8A1
:1021D000204600F019F8002020775FE7204600F045
:1021E0000FF8204600F010F8002020775EE7204628
:1021F00000F006F8204600F007F8002020775DE7A1
:102200007047000000000000704700000000000060
:10221000B0B540F600410068C4F20001884225D004
:102220000021C4F20101884255D140F2B00040F2D1
:102230005C04C2F20000C2F2000400250068416A9A
:102240002160456240F20040C4F202000121FEF725
:102250001BFC40F26000C2F20000006803283BD87B
:10226000DFE800F0023C444F002051E040F238002B
:10227000C2F20000017801F0C002402A10D101F042
:102280003F023F2A0AD141F08001017040F2340040
:102290004FF0FF31C2F20000016001E00131017036
:1022A00040F24400C2F20000017801F0C002402A6E
:1022B00018BFB0BD01F03F023F2A0AD141F08001B2
:1022C000017040F240004FF0FF31C2F200000160A7
:1022D000B0BD01310170B0BD2560B0BD40F250000D
:1022E0002168C2F200000160012006E040F25000C7
:1022F0002168C2F2000041600020012100F0C4FD0D
:10230000B0BD40F250002168C2F20000816001209F
:10231000002100F0B9FDB0BD4FEAB101032907D893
:10232000DFE801F002080C100068343000687047E4
:1023300000207047006838300068704700683C3003
:102340000068704700684030006870470000000077
:10235000B0B5044690F83C0001284FF0020008BFD9
:10236000B0BD012584F83C5084F83D00204600F0C3
:1023700067FE00284FF0010009D12068C16821F0F4
:102380004001C160C16821F48041C160002084F82F
:102390003D50002184F83C10B0BD0000000000005A
:1023A000704700000000000010B5A0B10446806F27
:1023B00028B9002084F87400204600F025F8242075
:1023C000A0672068016821F001010160204601F04A
:1023D00097F8012801D1012010BD606A10B1204694
:1023E00000F0EAFF2068416821F490414160816873
:1023F00021F02A018160016841F00101016020465D
:1024000001F04AF810BD000080B586B044F20042E9
:102410000068C4F20002002190420591CDE9031149
:10242000CDE901111ED041F20001C4F20101884240
:102430003ED143F63000C4F20200416941F0100180
:102440004161416901F0100100910099016841F07A
:1024500001010160006800F00100009000984FF455
:10246000C06016E043F63000C4F20200016941F496
:1024700000310161016901F40031009100990168A6
:1024800041F001010160006800F001000090009837
:102490000C20019002200290002003900320049061
:1024A000072005900020C4F2020001A9FEF718FAE7
:1024B00006B080BD000000002DE9F04381B0044665
:1024C000806F20280BD10E4600294FF001005AD012
:1024D0001746002A57D094F87400012803D102202F
:1024E00001B0BDE8F0831D46012084F874004FF070
:1024F0000009C4F880902120A067FEF7D5FAA4F85F
:102500005070A4F852700746A168B1F5805F07D1FA
:10251000206900281CBF30464E46B046064601E002
:102520004FF0000884F8749009E000BF206816F8A6
:10253000011B8162B4F852000138A4F85200B4F8CB
:10254000520088B18021002220463B46009501F0D0
:10255000FBF888B9002EE9D138F8020B2168002673
:102560006FF35F208862E5E74021002220463B466A
:10257000009501F0E9F818B1032001B0BDE8F0833F
:102580002020A067002001B0BDE8F083000000001B
:10259000FEE70000000000002DE9F04F87B043F691
:1025A00030000027C4F202000697CDE90477CDE998
:1025B0000277016840F2004541F080010160016846
:1025C000C4F2020501F0800101910199016841F016
:1025D00001010160016805F5C05401F0010101919C
:1025E0000199016841F0020101600168002201F0D7
:1025F000020101910199016841F004010160006844
:10260000302100F004000190019820463026FEF7AA
:1026100043FAA5F580685021002240464FF0500B48
:10262000FEF73AFA072100222846FEF735FA05F5AB
:1026300000604FF4C0510022FEF72EFA4FF46041C3
:1026400000222846FEF728FA029602AE20463146BE
:102650004FF00109CDF80C904FF0020ACDE904A724
:10266000FEF73EF940463146CDE902B9CDE904779F
:10267000FEF736F903203146CDE902092846CDE9B7
:102680000497FEF72DF90420029028463146CDF834
:1026900010A0FEF725F902A94FF46040059781E8E4
:1026A000810428463146FEF71BF902A9C020059790
:1026B00081E8810405F580603146FEF711F90C20B0
:1026C0003146CDE902092046CDE90497FEF708F925
:1026D000082100222046FEF7DFF9042100222046CF
:1026E000FEF7DAF907B0BDE8F08F00000000000047
:1026F00080B588B040F264000022C2F200000021E0
:102700000791C4F20102CDE90511CDE90311CDE92C
:102710000111026040F2E732C0E901214CF250326F
:10272000C0E90321C0E90511FFF78EF808B1FEF7F3
:102730009FF84FF48050049040F2640004A9C2F264
:102740000000FFF72DFA08B1FEF792F80020039081
:10275000CDE9010040F2640001A9C2F20000FFF7D8
:102760000BF808B1FEF784F808B080BD0000000047
:1027700010B588B040F2B0000024C2F200004FF063
:102780008041CDE90644CDE90444CDE90244CDE9D8
:102790000044C0E9001484604FF0FF31C0E9031425
:1027A0008461FFF751F808B1FEF762F80720039043
:1027B000502003A9CDE9040440F2B0000794C2F20E
:1027C0000000FFF7C5FD08B1FEF752F800200090A9
:1027D000029040F2B000C2F200006946FEF7CCFF62
:1027E00008B1FEF745F808B010BD00000000000079
:1027F00010B58CB040F2FC0040F60042C2F200007E
:1028000000210B91C4F20002CDE90911CDE90711B5
:10281000CDE90511CDE90311CDE901110260632273
:10282000C0E901214FF0FF328161C0E90321FFF7C8
:102830000BF808B1FEF71CF84FF48050089040F2F6
:10284000FC0008A9C2F20000FFF7AAF908B1FEF7E0
:102850000FF840F2FC00C2F20000FFF70DFB08B1D8
:10286000FEF706F840F2FC0005A9C2F200000024C1
:1028700005940794FEF780FF08B1FDF7F9FF0120EA
:1028800001A9CDE9020440F2FC000022C2F20000DE
:1028900001940494FFF7A4FA08B1FDF7E9FF40F2B0
:1028A000FC0001A9C2F200000422FFF799FA08B166
:1028B000FDF7DEFF0CB010BD10B584B040F248103B
:1028C00041F20001C2F2000000240394C4F20001AE
:1028D000CDE9014401606321C0E901144FF6FF71A5
:1028E000C1608461FEF7B0FF08B1FDF7C1FF1020A1
:1028F000019040F2481001A9C2F200000394FEF7D3
:102900003BFF08B1FDF7B4FF04B010BD00000000AC
:1029100080B540F2941041F20001C2F20000C4F20E
:1029200001010C2201604FF4E13141600021C0E956
:1029300002110161C0E90521C0E907114162FFF7F9
:1029400033FD002808BF80BDFDF792FF80BD000069
:1029500080B540F2182044F20041C2F20000C4F2F7
:1029600000010C2201604FF4E13141600021C0E917
:1029700002110161C0E90521C0E907114162FFF7B9
:1029800013FD002808BF80BDFDF772FF80BD000069
:10299000FEE7000000000000F0B597B001AC0D4666
:1029A0000646322120460022ADF85820CDE91422F7
:1029B000ADF84C20CDE91122ADF840200F920E92D7
:1029C000FDF76EFC14AF23208DF804000A22304678
:1029D000394601F0D1F93846FDF779FC02280BD0D1
:1029E00001280ED12046FDF772FC211843F2300277
:1029F00022520020887004E02046FDF768FC302158
:102A0000215201AC14A92046FDF755FC11AE0A2253
:102A10002846314601F0B0F93046FDF758FC04284D
:102A20000BD003280ED12046FDF751FC211843F2AC
:102A3000500222520020887004E02046FDF747FC37
:102A40005021215211A92046FDF735FCFDF73FFC2E
:102A5000211843F25402C3F2300222503020888001
:102A60000EA92046FDF727FCFDF731FC40F6215169
:102A7000C0F20A0121503221204600F081FC44F2CC
:102A800014702146C0F6000001F0ACF940F200409D
:102A90000221C4F20200FDF7F7FF17B0F0BD0000FD
:102AA0002DE9F04196B06E460D460746322130467C
:102AB0000023ADF854309046CDE91333ADF84830DB
:102AC000CDE91033ADF83C300E930D93FDF7E8FBE4
:102AD00013AC23208DF800000A223846214601F06D
:102AE0004BF92046FDF7F3FB02280BD001280ED14D
:102AF0003046FDF7ECFB311843F230023252002031
:102B0000887004E03046FDF7E2FB302131526E461A
:102B100013A93046FDF7CFFB10AC0A222846214608
:102B200001F02AF92046FDF7D2FB04280BD0032838
:102B30000ED13046FDF7CBFB311843F25002325232
:102B40000020887004E03046FDF7C1FB502131526F
:102B50006D4610A92846FDF7AEFB0DAC0A22404693
:102B6000214601F009F92046FDF7B1FB04280CD0FD
:102B7000032810D0022817D12846FDF7A8FB43F2FE
:102B80005401C0F2300129500EE02846FDF79FFBAA
:102B90005421295208E02846FDF799FB291843F2F1
:102BA00054022A52002088700DA92846FDF783FBA5
:102BB000FDF78DFB40F62151C0F20A012950322168
:102BC000284600F0DDFB44F214702946C0F60000F0
:102BD00001F008F916B0BDE8F08100000000000027
:102BE00070B596B06C460021ADF854100546CDE99D
:102BF0001311ADF848102046CDE91011ADF83C1086
:102C00000E910D913221FDF74BFB13AE23208DF871
:102C100000000A222846314601F0AEF83046FDF7A2
:102C200056FB02280BD001280ED12046FDF74FFBA2
:102C3000211843F2300222520020887004E020461E
:102C4000FDF745FB302121526C4613A92046FDF7C4
:102C500032FB10AD40F2DC500A22294601F08CF81C
:102C60002846FDF734FB04280BD003280ED120465C
:102C7000FDF72DFB211843F25002225200208870EC
:102C800004E02046FDF723FB5021215210A92046E5
:102C9000FDF711FBFDF71BFB211843F25402C3F2B1
:102CA00030022250302088800DA92046FDF703FB1A
:102CB000FDF70DFB40F62151C0F20A0121503221EF
:102CC000204600F05DFB44F214702146C0F600007F
:102CD00001F088F840F200400221C4F20200FDF742
:102CE000D3FE16B070BD0000FEE70000000000003B
:102CF00000F007004FF0FF3C80F00703042B28BFD3
:102D00000423033838BF00200CFA03F399430CFA6C
:102D100000F301FA00F022EA0301084370470000C3
:102D20007047000000000000704700000000000035
:102D3000B0B541F600450446C4F202050821002260
:102D40002846FDF7A9FE082101222846FDF7A4FE2A
:102D50002046FDF775FD082100222846FDF79CFE60
:102D6000B0BD00000000000080B50120FFF738FF73
:102D70000220FFF735FF0420FFF732FF0520FFF7A1
:102D80002FFF80BD00000000B0B501380024B4EB77
:102D9000106F01D00120B0BD4EF210050F21CEF210
:102DA000000568604FF0FF3000F042FDAC60072086
:102DB00028602046B0BD000080B5FDF77DFE80BDD7
:102DC000F0B5B7B02AAD34212846FDF769FA01AC59
:102DD0009021204600262996CDE92766CDE9256673
:102DE000FDF75EFA43F640000227C4F202000168D4
:102DF00041F080510160006800F08050009047F27F
:102E000000000099C4F20000016841F440410160F3
:102E1000006800F440400090009801202A904FF490
:102E200080302B904FF4800031900C203290C020E5
:102E3000CDE93307284630973597FEF7E5FAFDF7D9
:102E4000B3FE0F200621CDE925074FF4A0502890AE
:102E50004FF48050299025A82796FEF7C1F940200D
:102E6000019020461296FDF7DBFE37B0F0BD000062
:102E70004EF68850CEF20000016841F47001016006
:102E8000704700000000000080B540F25C0C40F28A
:102E90006002C2F2000CC2F200020023CCF8003043
:102EA00013680133136000F0E7FC80BD00000000F0
:102EB00080B540F26400C2F20000FFF7DDF880BD8B
:102EC00080B540F2FC00C2F20000FFF7D5F880BDEB
:102ED00010B540F6FF3E40F2004CC4F2000E03680D
:102EE0007045C4F2010C0FDCB0F1804F14D040F2F9
:102EF0000042C4F2000290420ED040F60002C4F23A
:102F00000002904208D00BE040F60042C4F20002FA
:102F1000904218BF604568D123F070024B6813439C
:102F200041F6FF72C4F2000290420DDC70451FDCD6
:102F3000B0F1804F41D040F20042C4F20002904212
:102F40003BD040F6000221E043F6FF72C4F20102DA
:102F5000904220DC42F20002C4F2000290422CD0E7
:102F60000022C4F20102904227D0604525D028E01B
:102F700040F60042C4F2000290421ED041F6000228
:102F8000C4F20002904218D041F60042C4F200029E
:102F9000904212D015E044F20002C4F201029042C5
:102FA0000BD044F60002C4F20102904205D044F274
:102FB0000042C4F20102904203D123F44072CB6874
:102FC000134323F080024B69D1F800E01A438C6868
:102FD000026040F48062C462C0F828E0624504BF29
:102FE000096901630121416110BD0022C4F201029F
:102FF00090423FF491AF93E701F01F01012303FAE0
:1030000001FC036A23EA0C03036202FA01F1026A7B
:103010001143016270470000D0F808C011432CF43E
:103020007F4241EA032111438160704700000000A4
:10303000826822F07002114341F0070181607047FD
:1030400010B500684FF68873CFF6FE7382680C687F
:1030500002EA030C4A68703302EA030E6FF00303BE
:1030600003EB32134EEA0C02032B42EA04028260A5
:103070000CD8DFE803F00215060D052C17D101204E
:1030800010BD8B680A69194600F08AF8002010BD4F
:10309000D1E9022C0B696146FFF7BEFF002010BD8D
:1030A0008B680A69194600F013F8002010BD026A07
:1030B000036A23F0010303628369096923F0F003C3
:1030C00043EA011181610262002010BD000000008E
:1030D000D0F820C0036A23F001030362836923F060
:1030E000F00343EA02122CF00A03826119430162E1
:1030F000704700000000000010B5D0F820C041F279
:10310000FF7E2CF0010CC4F2000EC0F820C0704508
:10311000D0F818E0D0F820C00DDC40F2FF74C4F203
:103120000004A04215DCB0F1804F29D040F20044E9
:10313000C4F2000422E040F2FF34C4F20104A042D1
:1031400012DC41F60004C4F20004A04218D00024AE
:1031500012E040F60004C4F20004A04210D040F691
:103160000044C4F2000409E044F20004C4F2010483
:10317000A04205D040F20044C4F20104A0420CD1A8
:103180002EF00304224363F307122CF00A0301F02C
:103190000A0182611944016210BD4EF00102F2E79A
:1031A000036A23F010030362836923F47043D0F8A9
:1031B00020C043EA02322CF0A003826143EA0111ED
:1031C0000162704700000000B0B5D0F820C01202C4
:1031D0002CF0100CC0F820C04FF2FF05D0F818C03A
:1031E000D0F820E0AA4301F00A012CF4734463F301
:1031F0000F322EF0A0032243826143EA01110162E3
:10320000B0BD00000000000080B5D0F820C001F083
:103210000A0163F307122CF4807CC0F820C0D0F8B8
:103220001CC0D0F820E02CF0F30C2EF4206342EA0E
:103230000C02C26143EA0121016280BD000000006E
:10324000B0B5D0F820C012022CF4805CC0F820C0C9
:103250004FF2FF05D0F81CC0D0F820E0AA4301F0DF
:103260000A012CF4734463F30F322EF420432243FB
:10327000C26143EA01310162B0BD000000000000FC
:1032800080B501204FF4FA614FF41672FFF708FC85
:1032900002204FF4C8614FF41672FFF701FC0420BE
:1032A0004FF4C8614FF41672FFF7FAFB05204FF494
:1032B000FA614FF41672FFF7F3FB80BD00000000C7
:1032C00080B5012040F698014FF41672FFF7E8FB35
:1032D00002204FF4C8614FF41672FFF7E1FB04209F
:1032E0004FF4C8614FF41672FFF7DAFB052040F681
:1032F00098014FF41672FFF7D3FB80BD0000000069
:1033000080B501204FF4C8614FF41672FFF7C8FB77
:1033100002204FF4FA614FF41672FFF7C1FB04204C
:103320004FF4FA614FF41672FFF7BAFB05204FF421
:10333000C8614FF41672FFF7B3FB80BD00000000B8
:1033400080B501204FF4C8614FF41672FFF7A8FB57
:10335000022040F698014FF41672FFF7A1FB0420FB
:1033600040F698014FF41672FFF79AFB05204FF4D0
:10337000C8614FF41672FFF793FB80BD0000000098
:10338000F0B581B0A1B140F218260C4605460027E1
:10339000C2F20006E91901224FF47A733046FFF7B2
:1033A0008BF83068C1690906FCD50137A742F1D115
:1033B00001B0F0BD00000000416ACA070CD18A07C5
:1033C00015D44A071ED40A0727D4CA0630D48A0661
:1033D00039D44A0655D541E00268D0F828C0536870
:1033E00023F4003343EA0C0353608A07E9D50268EB
:1033F000D0F82CC0536823F4803343EA0C035360A5
:103400004A07E0D50268D0F830C0536823F480231F
:1034100043EA0C0353600A07D7D50268D0F834C0DA
:10342000536823F4004343EA0C035360CA06CED525
:103430000268D0F838C0936823F4805343EA0C0341
:1034400093608A06C5D50268D0F83CC0936823F41F
:10345000005343EA0C0393604A0612D50268D0F881
:1034600040C05368BCF5801F23F4801343EA0C036B
:10347000536006D1536823F4C00C436C43EA0C0339
:103480005360090658BF70470168806C4A6822F48F
:103490000022104348607047B0B582B00446002057
:1034A000C4F88000FDF700FB21680546096809079C
:1034B0000AD54FF4001100226FF07E4000902046A4
:1034C0002B4600F041F970B92068006840070DD51F
:1034D0004FF4800100226FF07E40009020462B4682
:1034E00000F032F910B1032002B0B0BD2020A06777
:1034F000E0670020206684F8740002B0B0BD0000D0
:10350000B0B5044602688068D4E9031318436369C0
:10351000034346F6F310D4F81CC01568CEF6FF70CE
:1035200043EA0C03284018431060506847F2FF73C9
:1035300020F44050C4F2000308435060A0699A424E
:10354000216A40EA0100916821F4306140EA0100FB
:103550004FF01001906018DC44F6FF30C4F2000018
:1035600082422BDC44F20040C4F2000082424BD085
:1035700044F60000C4F2000082425ED143F690009F
:10358000C4F202000068010952E040F6FF70C4F284
:103590000100824225DC47F60000C4F200008242AE
:1035A00039D047F60040C4F20000824245D143F6CC
:1035B0009000C4F202000068810B39E044F600403C
:1035C000C4F2000082422DD045F20000C4F2000097
:1035D000824232D143F69000C4F202000068010A30
:1035E00026E041F20040C4F2010082424AD041F29A
:1035F0000000C4F2010082421FD143F690004EA2A7
:10360000C4F20200016814E043F69000C4F2020024
:10361000006881080CE043F69000C4F202000068E4
:10362000010B05E043F69000C4F202000068810936
:103630003DA201F0030052F8201042F20040BCF518
:10364000004FC0F2F4000ED1082928D80025DFE889
:1036500001F005212D262A26262640000025FDF70B
:1036600073FE20BB54E008293ED80025DFE801F0B6
:103670000537433C403C3C3C55000025FDF764FECB
:10368000D0BB45E043F690002BA2C4F202000068D4
:10369000810ACEE70025FDF76BFE40B938E0002037
:1036A000012520B934E00025FDF776FE80B361687E
:1036B0004A0802EB4000B0FBF1F04FF6F071014018
:1036C00005D0C0F3420022680843D06020E0012505
:1036D0001EE04FF4004000250028E8D118E0002546
:1036E000FDF746FE40B913E00020012520B90FE0A8
:1036F0000025FDF751FE58B1616800EB5100B0FBA9
:10370000F1F080B2102802D32168C86000E00125E2
:103710000020C4E919002846B0BD4FF40040002540
:103720000028E9D1F4E700BF000000000400000019
:10373000020000000800000001000000040000007A
:1037400002000000080000002DE9F04381B00446AB
:103750000068C0690840401AB0FA80F04009904201
:1037600035D1DDF820800D461646994608F101074F
:1037700009E000BF2068C0692840401BB0FA80F013
:103780004009B04223D1002FF4D0FDF78DF9216814
:10379000B8F1000F0A681ED0A0EB090040451AD806
:1037A000500744BFC8695FEA0050E3D54FF400609A
:1037B0000862086820F4D0700860886820F0010072
:1037C00088602020A067E067C4F880000DE000203A
:1037D00001B0BDE8F08322F4D0700860886820F062
:1037E000010088602020A067E067002084F8740052
:1037F000032001B0BDE8F083FEE7000000000000F8
:10380000002848BF70474EF2001300F01F01400926
:10381000CEF20003012202FA01F143F820107047B2
:103820004EF60C50CEF200000068C0F30220704744
:103830004EF6145300F00F02CEF20003B0F1FF3F3A
:103840001A4400F16043C8BF03F5644208011070D8
:1038500070470000000000004EF60C514FF6FF03C9
:10386000CEF200010A681A4060F30A2242F080603A
:1038700040F0FD700860704770B541F600440D4699
:1038800006460843C4F2020409D110210022204652
:10389000FDF702F9202100222046FDF7FDF8002E59
:1038A00008BF012D09D1102100222046FDF7F4F8B0
:1038B000202101222046FDF7EFF8012E08BF002D40
:1038C00009D1102101222046FDF7E6F8202100222F
:1038D0002046FDF7E1F8012E08BF012D00D070BD94
:1038E000102101222046FDF7D7F820210122204691
:1038F000FDF7D2F870BD0000B0B582B040F294156B
:103900000446C2F200058DF807000DF107010122FF
:103910004FF47A732846FEF7CFFD2868C16909067F
:10392000FCD5204602B0B0BD84B040F20046C4F2DF
:103930000206FDF7D1F8FFF743FAFEF7E9FFFFF7BC
:1039400007F8FEF729FEFEF7D3FEFEF711FFFEF79C
:103950004FFFFEF7B1FFFCF74FFF40F26400C2F2E9
:103960000000FEF7A9F840F2B000C2F20000FEF736
:103970004BF840F2FC050021C2F200050024284665
:10398000FEF7AEFA04212846FEF7AAFA2868A6F543
:1039900080650022C16841F00101C1601021284604
:1039A000FDF77AF8402101222846FDF775F8042139
:1039B00001223046FDF770F840F6B830FCF77CFF86
:1039C00040F2240040F25005C2F20000C2F20005AD
:1039D000061F0FF23C389FEDCC8B304605EB84017F
:1039E000071D91ED000AB8EEC00B88EE000BB7EE94
:1039F000C00B80ED010A4046B7EEC01A53EC112B04
:103A000000F0F0F901343846032CE7D10024C5A7B3
:103A100005EB840096ED011A043690ED000A384655
:103A2000B8EEC00A21EE000ABDEEC00A10EE101A70
:103A300000F0D8F90134032CEAD1BCA000F04CFE10
:103A400040F2240040F20042C2F2000005F1080AF0
:103A500000F108090FF2EC28BCA60FF2F82BC4F213
:103A60000202CDF80CA010E0002918BFBAF1000F37
:103A700000F0C180FCF7A8FE40F200420FF2C4281B
:103A8000C4F20202B1A6DDF80CA040F260000024EE
:103A9000C2F200000221046040F25C00C2F20000A9
:103AA00004601046FCF7F0FF40F2500540F2240796
:103AB000C2F20005C2F2000717E000BF39462A46ED
:103AC000584692ED000A91ED001AB8EEC00A21EEB8
:103AD000000ABDEEC00A10EE101A00F083F901349E
:103AE0000437032C05F104050CD0022C06D0002C61
:103AF000E4D1304600F076F9E0E700BF494652468F
:103B00004046DEE740F200474FF40051C4F202079E
:103B10003846FCF7B1FF40F2100807F58064C2F2A6
:103B200000084021C8F800002046FCF7A5FF40F23D
:103B300014054FF48041C2F2000528603846FCF7B6
:103B40009BFF40F218068021C2F20006306020463A
:103B5000FCF792FF40F21C0A4FF40041C2F2000A47
:103B6000CAF800003846FCF787FF40F220012A68B7
:103B7000C2F200013368DAF800700860D8F800106B
:103B8000CDE9007075A000F02DF91420FFF7D0F8F2
:103B9000D8F800E02B6870461946BEF1000F18BF38
:103BA0000120002B18BF01213768B7FA87F600EA19
:103BB000010440F220004FEA561CC2F2000004EA61
:103BC0000C06012EDAF80010D0F800A005D100296B
:103BD00018BFBAF1000F7FF44DAF7246BEF1000F6F
:103BE00018BF0122B3FA83F56D092A40012A08BFE4
:103BF000002F3FF439AFB1FA81F56D092E40012E47
:103C000003D1BAF1000F7FF435AF5046BAF1000F7F
:103C100018BF012086F0010630434FD03846002FF0
:103C200018BF0120044004EA0506012E08BFBAF1BE
:103C3000000F43D0BAFA8AF0450986F00100284304
:103C400002D1FFF75DFB17E70846002918BF0120E6
:103C50000440012C08BFBAF1000F2FD043EA0E0632
:103C600056EA070004D1002918BFBAF1000F2BD182
:103C70001EB9002F18BF002923D1029082F0010045
:103C800050EA0C000FF2BC0804D1002918BFBAF1A9
:103C9000000F1CD1BEF1000F08D1002B18BF002F60
:103CA00004D0002918BFBAF1000F25D184F001001B
:103CB00028430FD1FCF7E0FD23E000BFFFF740FBF6
:103CC000DAE6BAF1000FD8D0FFF7FAFAD4E6FFF738
:103CD000D7FA16E00298084350EA0A0009D140F2E8
:103CE0004C01C2F2000108680F2800F101000860D1
:103CF00005DBFFF739F804E0FFF7E2FA01E0FCF733
:103D000063FD40F20042BBE60000000000E06F40AF
:103D10005363616C65723A2025356C6620200D0A6C
:103D2000000000002564200D0A0000005768697437
:103D3000652042616C616E636520446F6E65210D84
:103D4000000000002564290D0A00000052474220AF
:103D50003D20280025642C200000000025642C2034
:103D600025642C2025642C2025642C2025640D0A34
:103D70000000000000000000B0B50A2A8C460A4688
:103D800009D120B1B0F1FF3F09DD62460CE0624687
:103D9000302002F8010B002010706046B0BD624672
:103DA00040422D2102F8011B46F2676E42F2107369
:103DB0000021C6F2666E0EE004FB130004F1300130
:103DC00002F8011B012153FB0EF4092B4FEAA40555
:103DD00005EBD473DFDD90FBF3F42143ECD100213C
:103DE000F1E700000FB4054B10B503A9044A02988F
:103DF00000F0DAF810BC5DF814FB0000F938000898
:103E00000000002002E008C8121F08C1002AFAD1F1
:103E100070477047002001E001C1121F002AFBD14A
:103E2000704700002DE9FF5F82B00021DDE904301A
:103E3000020DDDF840B0034318D044F61050A2F252
:103E4000FF3242431514119801281FD0A5EB0B0037
:103E5000401C5FEA000A4FF000064E4FDFF8389131
:103E6000B046504615D5CAF1000413E0119801245C
:103E70004AA3012801D16FEA0B010298119AC0E907
:103E80000031C0E9024206B0BDE8F09FCBF100006E
:103E9000DFE704460021404A491842EB0450CDE9CF
:103EA000001012E0E00707D032463B464046494644
:103EB000FCF7F0FA8046894632463B4610461946E2
:103EC000FCF7E8FA06460F466410002CEAD1DDE95B
:103ED0000401DDE90023BAF1000F06DAFCF7DAFA93
:103EE00042464B46FCF7D6FA05E0FCF745FB424656
:103EF0004B46FCF741FB04460E460022284BFCF7DC
:103F0000C3FB03D84FF0FF30014607E00022254BEA
:103F100020463146FCF717FAFCF79DFB102409E018
:103F2000002C0ADB0A220023FCF782F9039B3032C3
:103F30001A55641E50EA0102F2D1641C039AC4F1BE
:103F400011031444119A012A03D0012208430DD110
:103F50000AE0084304D000204FF0110B119072E7E3
:103F6000A3EB0B056D1E0DE05B4504DD4FF0000279
:103F700005F1010504E003DA4FF00002A5F10105A7
:103F8000002AECD002981199C0E90231C0E900453D
:103F900079E70000000014400000F03F300000000E
:103FA0000000F0430000E03F2DE9FF4F95B09B4635
:103FB0008946064600250FE2252877D100242746AA
:103FC000F84A0121059400E0044316F8013F203B24
:103FD00001FA03F01042F7D130782A2811D06FF09F
:103FE0002F033078A0F13002092A16D8059A44F040
:103FF000020402EB820203EB42021044761C05909D
:10400000EFE759F8042B0592002A03DA504244F4F2
:104010000054059044F00204761C30782E2816D106
:1040200016F8010F44F004042A280DD06FF02F0277
:104030003078A0F13003092B09D807EB870302EB96
:104040004303C718761CF3E759F8047B761C3078D5
:104050006C280FD006DC4C2817D068280DD06A28B1
:1040600014D104E0742810D07A280FD10DE044F464
:1040700000140AE044F4801401E044F4401472781F
:10408000824202D104F58014761C761C30786628B2
:104090000BD013DC582877D009DC002875D04528D0
:1040A000F6D04628F4D047281AD19DE118E06328BD
:1040B00035D0642879D0652812D195E1702873D065
:1040C00008DC6728F1D069286FD06E280DD06F28E2
:1040D00006D1B5E073282CD0752875D0782874D017
:1040E0005A46179990476D1C75E1C4F30250022897
:1040F00009D003280DD0D9F8001004280DD00D6088
:1041000009F1040967E1D9F80010EA17C1E9005282
:10411000F6E7D9F800100D80F2E70D70F0E719F816
:10412000041B8DF8001000208DF80100EA460120E4
:1041300003E059F804AB4FF0FF3061074FF0000186
:1041400002D40DE008F101018846B9420FDA80453A
:10415000F8DB1AF808100029F4D108E008F1010191
:1041600088468142FADB1AF808100029F6D1059832
:104170005B46A0EB080721463846179A00F094FAF0
:10418000284400EB080507E04DE029E10DE01AF8AE
:10419000010B5A4617999047B8F10108F7D25B46D0
:1041A00021463846179A13E142E00A220092C4F3EE
:1041B00002524FF0000A022A08D059F804CB032A11
:1041C0004FEAEC710AD00DE029E02AE009F107017D
:1041D00021F00702F2E802C1914609E00FFA8CFCD7
:1041E0004FEAEC71042A03D14FFA8CFC4FEAEC71D0
:1041F000002907DA0A460021DCF1000C61EB02011C
:104200002D2202E0220504D52B228DF80420012264
:1042100003E0E20701D02022F7E7904659E00A21A7
:1042200002E010220DE010214FF0000A00910BE097
:1042300010224FF0000A44F004040827009203E023
:1042400008224FF0000A0092C4F30252022A05D05D
:1042500059F804CB0021032A08D009E009F107012D
:1042600021F00702F2E802C1914605E01FFA8CFC3A
:10427000042A01D10CF0FF0C4FF00008220728D5CA
:10428000702806D0009B83F0100353EA0A0305D080
:104290000EE040228DF80420012208E05CEA0102D1
:1042A00006D030228DF804208DF8050002229046B9
:1042B000009B83F0080353EA0A030AD15CEA010277
:1042C00001D1620705D530228DF804204FF0010896
:1042D0007F1E582804D034A003900EA802900DE051
:1042E00036A0F9E753466046009AFBF7A1FF8446E3
:1042F0000398825C0298401E029002705CEA010002
:10430000F0D1029806A9081A00F1200A600702D528
:1043100024F4803400E00127574502DDA7EB0A00B2
:1043200000E0002000EB0A01009005984144401A8B
:104330000590E00306D45B462146179A059800F0E5
:10434000B3F90544002706E001A85A46C05D179955
:1043500090476D1C7F1C4745F6DBE0030CD55B46A0
:104360002146179A059800F09FF9054404E0302093
:104370005A46179990476D1C0099481E00900029D5
:10438000F5DC08E0029802995A460078491C02912F
:10439000179990476D1CBAF10001AAF1010AF1DCEE
:1043A00065E10000092801003031323334353637F9
:1043B0003839616263646566000000003031323371
:1043C0003435363738394142434445460000000011
:1043D00000F058F90544761C307800287FF4ECADE5
:1043E00019B02846BDE8F08F620700D4062709F10E
:1043F000070222F0070CFCE80223E14603F0004824
:104400005FEA080C02D00FF2702C0DE05FEA045C4A
:1044100002D50FF2682C07E05FEAC47C02D00FF2ED
:10442000602C01E0AFF2700C4FF0FF3823F0004336
:10443000CDF850C065280CD006DC452809D04628A8
:104440001DD047283DD13DE0662818D067287ED191
:1044500038E00021112F01DB112000E0781CCDE9AC
:10446000000106A90EA8FFF7DDFCDDE90F010E9A99
:1044700003910021009207F1010A04914DE04FF0F1
:1044800000400097CDE9011006A90EA8FFF7CAFC6D
:10449000DDE90F0203920E9B11990022DDF80CA0BA
:1044A0000093049211B9791C00EB010AB7EB0A00E2
:1044B00004D4C0F1FF3007F1010A0490AAEB070011
:1044C000019044E0012F00DA01270021112F01DDC6
:1044D000112000E03846CDE9000106A90EA8FFF73B
:1044E000A1FCDDE90F010E9A0391002104910092D5
:1044F000BA4621070CD40399514500DA8A46BAF12D
:10450000010F05DD009AAAF10101515C302908D0A4
:10451000B84202DA10F1040F06DA0121CDE90110E8
:1045200015E0AAF10101E9E7002805DC049901443E
:104530000491AAEB000102E0411C514500DD8A46CE
:104540000499401A401C01904FF00040029020074F
:1045500004D40198504501DBCDF8048000208DF88B
:104560004F0002980DF14F07B0F1004F25D02B20DE
:104570000E9002984FF0020800280CDA4042029098
:104580002D200E9007E00A210298FBF7A7FE30319C
:10459000029007F8011DB8F10001A8F10108F2DC52
:1045A00002980028EFD1791E0E980870307800F03C
:1045B000200040F0450007F8020D12A8C01B00F1D2
:1045C00007081498007800B1012000EB0A01019857
:1045D00001EBE07105984144401A401E0590E0034C
:1045E00006D45B462146179A059800F05DF805440D
:1045F0001498007818B15A46179990476D1CE0033B
:1046000024D55B462146179A059800F04DF80544DD
:104610001CE00498002807DBDDE90301884203DD84
:104620000098405C179901E0179930205A4690474E
:10463000049805F10105401C04900198401E01906A
:1046400004D12E205A46179990476D1CBAF10001EB
:10465000AAF1010ADDDC05E017F8010B5A461799AB
:1046600090476D1CB8F10001A8F10108F4DC5B462D
:104670002146179A0598ABE62D0000002B0000009C
:10468000200000002DE9F041044600251E46174693
:10469000880404D405E039462020B0476D1C641E10
:1046A000F9D52846BDE8F0812DE9F0410446002502
:1046B0001E469046C80301D5302700E02027880415
:1046C00004D505E041463846B0476D1C641EF9D557
:1046D0002846BDE8F081000010B5044601E0FFF770
:1046E0000BF914F8010B04490028F8D1BDE810407B
:1046F0000A20FFF701B900000000002000000000C0
:104700000000000001020304060708090000000081
:104710000102030425730000384700080000002050
:1047200010000000043E0008484700081000002068
:1047300090060000143E0008000000000024F40071
:08474000010000001000000060
:04000005080001F9F5
:00000001FF
